:100000000C942A000C943F000C943F000C943F0089
:100010000C943F000C943F000C943F000C943F0064
:100020000C943F000C943F000C943F000C943F0054
:100030000C943F000C943F000C943F000C943F0044
:100040000C943F000C943F000C943F000C943F0034
:100050000C943F0011241FBECFE5D8E0DEBFCDBF1A
:1000600010E0A0E6B0E0E4EDF1E202C005900D92F0
:10007000A836B107D9F70E948D0F0C94E8100C94A4
:100080000000EF92FF920F931F937B018C0120E001
:1000900030E040E05FE40E94410388238CF0C80117
:1000A000B70120E030E040E05FE40E94B9010E9427
:1000B000A1039B01AC01205030404040504806C095
:1000C000C801B7010E94A1039B01AC01B901CA019B
:1000D0001F910F91FF90EF900895A0E0B0E0E3E74B
:1000E000F0E00C94B110DC012B01FA019C919230EC
:1000F00008F439C1EB018881823008F433C19430AF
:1001000069F4843009F02FC111969C91119789816F
:10011000981709F428C1A0E6B0E025C1843009F49D
:1001200021C18230A9F4923009F01DC19A01AD01BC
:1001300088E0EA010990AE01E90109929E0181502F
:10014000C1F7E201898111969C918923818308C1BD
:10015000923009F407C112962D903C901397EB0151
:100160008A819B811496AD90BD90CD90DC901797BD
:10017000EC80FD800E811F819101281B390BB90194
:1001800037FF04C066277727621B730B6032710547
:100190000CF061C0121613066CF537014801062EEB
:1001A00004C096948794779467940A94D2F721E0D8
:1001B00030E040E050E004C0220F331F441F551FC1
:1001C0006A95D2F721503040404050402E213F21C7
:1001D00040235123211531054105510521F021E02E
:1001E00030E040E050E079018A01E628F72808294C
:1001F00019293CC0232BD1F1260E371E35014601AB
:10020000062E04C096948794779467940A94D2F744
:1002100021E030E040E050E004C0220F331F441FD3
:10022000551F6A95D2F721503040404050402A2156
:100230003B214C215D21211531054105510521F05E
:1002400021E030E040E050E059016A01A628B728DB
:10025000C828D9280BC0821593052CF01C01AA24AC
:10026000BB24650103C0EE24FF24870111969C91F5
:10027000D20111968C91981709F445C0992339F051
:10028000A80197012A193B094C095D0906C0A6017E
:1002900095012E193F09400B510B57FD08C01182E3
:1002A0003382228224833583468357831DC081E0B5
:1002B00081833382228288279927DC01821B930B5A
:1002C000A40BB50B84839583A683B7830DC0220F3F
:1002D000331F441F551F24833583468357838281F0
:1002E000938101979383828324813581468157814D
:1002F000DA01C9010197A109B1098F5F9F4FAF4F83
:10030000BF4328F30BC0918333822282EA0CFB1C8B
:100310000C1D1D1DE482F5820683178383E0808314
:10032000248135814681578157FF1AC0C901AA2708
:1003300097FDA095BA2F81709070A070B0705695FF
:10034000479537952795822B932BA42BB52B848328
:100350009583A683B7838281938101969383828359
:10036000DF0101C0D201CD01CDB7DEB7E2E10C94CF
:10037000CD10A0E2B0E0EFEBF1E00C94BD1069838A
:100380007A838B839C832D833E834F835887E9E058
:10039000EE2EF12CEC0EFD1ECE010196B7010E944F
:1003A000CA048E010F5E1F4FCE010596B8010E9450
:1003B000CA048A8991E089278A8BC701B801AE01F6
:1003C000475E5F4F0E946D000E94F503A096E6E035
:1003D0000C94D910A0E2B0E0E0EFF1E00C94BD1075
:1003E00069837A838B839C832D833E834F835887D5
:1003F000F9E0EF2EF12CEC0EFD1ECE010196B701B7
:100400000E94CA048E010F5E1F4FCE010596B801EF
:100410000E94CA04C701B801AE01475E5F4F0E9447
:100420006D000E94F503A096E6E00C94D910A0E2BE
:10043000B0E0EDE1F2E00C94B11069837A838B8334
:100440009C832D833E834F835887CE010196BE0146
:10045000675F7F4F0E94CA04CE010596BE016F5EA2
:100460007F4F0E94CA049985923088F08989823032
:10047000C8F0943019F4823051F404C0843029F467
:10048000923081F480E690E0C6C0923049F420E0DA
:100490009A858A89981321E02A87CE010996BBC0E4
:1004A000823049F420E09A858A89981321E02A8BCA
:1004B000CE014196B0C02D843E844F8458886D880B
:1004C0007E888F88988CEE24FF248701AA24BB2481
:1004D000650140E050E060E070E0E0E0F0E0C10184
:1004E00081709070892BE9F0E60CF71C081D191D2E
:1004F0009A01AB012A0D3B1D4C1D5D1D80E090E073
:10050000A0E0B0E0E614F7040805190520F481E046
:1005100090E0A0E0B0E0BA01A901480F591F6A1F9E
:100520007B1FAA0CBB1CCC1CDD1C97FE08C081E005
:1005300090E0A0E0B0E0A82AB92ACA2ADB2A3196C6
:10054000E032F10549F0660C771C881C991C569422
:10055000479437942794C3CFFA85EA892B893C893D
:100560008B859C85280F391F2E5F3F4F17C0CA010E
:1005700081709070892B61F016950795F794E79438
:1005800080E090E0A0E0B0E8E82AF92A0A2B1B2BD3
:1005900076956795579547952F5F3F4F77FDE7CF46
:1005A0000CC0440F551F661F771F17FD4160EE0CEE
:1005B000FF1C001F111F21503040403090E05907B0
:1005C00090E0690790E4790760F32B8F3C8FDB01A3
:1005D000CA018F779070A070B07080349105A1052A
:1005E000B10561F447FD0AC0E114F10401051105EC
:1005F00029F0405C5F4F6F4F7F4F40781A8EFE1797
:1006000011F081E08A8F4D8F5E8F6F8F78A383E02A
:10061000898FCE0149960E94F503A096E2E10C94E1
:10062000CD10A8E1B0E0E7E1F3E00C94BD106983E0
:100630007A838B839C832D833E834F83588789E005
:10064000E82EF12CEC0EFD1ECE010196B7010E94A2
:10065000CA048E010F5E1F4FCE010596B8010E949D
:10066000CA048985823040F08989823028F0C70128
:10067000B8010E94420501C08FEF6896E6E00C9435
:10068000D910A8E1B0E0E7E4F3E00C94BD10698371
:100690007A838B839C832D833E834F83588789E0A5
:1006A000E82EF12CEC0EFD1ECE010196B7010E9442
:1006B000CA048E010F5E1F4FCE010596B8010E943D
:1006C000CA048985823040F08989823028F0C701C8
:1006D000B8010E94420501C08FEF6896E6E00C94D5
:1006E000D910A8E1B0E0E7E7F3E00C94BD1069830E
:1006F0007A838B839C832D833E834F83588789E045
:10070000E82EF12CEC0EFD1ECE010196B7010E94E1
:10071000CA048E010F5E1F4FCE010596B8010E94DC
:10072000CA048985823040F08989823028F0C70167
:10073000B8010E94420501C081E06896E6E00C9491
:10074000D910ACE0B0E0E7EAF3E00C94C1106983A3
:100750007A838B839C83CE010196BE016B5F7F4FB2
:100760000E94CA048D81823061F1823050F1843060
:1007700021F48E81882351F12EC02F81388537FDD9
:1007800020C06E812F3131051CF06623F9F023C0A3
:100790008EE190E0821B930B29853A854B855C8521
:1007A00004C056954795379527958A95D2F76623C5
:1007B000B1F050954095309521953F4F4F4F5F4F89
:1007C0000EC020E030E040E050E009C02FEF3FEFE6
:1007D0004FEF5FE704C020E030E040E050E8B901AF
:1007E000CA012C96E2E00C94DD10DF92EF92FF92AA
:1007F0000F931F93FC01E480F58006811781D1805F
:100800008081823048F480E090E0A0E1B0E0E82A06
:10081000F92A0A2B1B2BA5C0843009F49FC0823013
:1008200021F4EE24FF24870105C0E114F104010541
:10083000110519F4E0E0F0E096C0628173819FEF4A
:10084000623879070CF05BC022E83FEF261B370BBC
:100850002A3131052CF020E030E040E050E02AC0A1
:10086000B801A701022E04C0769567955795479564
:100870000A94D2F781E090E0A0E0B0E004C0880FD5
:10088000991FAA1FBB1F2A95D2F70197A109B10989
:100890008E219F21A023B1230097A105B10521F04E
:1008A00081E090E0A0E0B0E09A01AB01282B392B69
:1008B0004A2B5B2BDA01C9018F779070A070B07062
:1008C00080349105A105B10539F427FF09C0205CEA
:1008D0003F4F4F4F5F4F04C0215C3F4F4F4F5F4F23
:1008E000E0E0F0E02030A0E03A07A0E04A07A0E412
:1008F0005A0710F0E1E0F0E079018A0127C0603882
:10090000710564F5FB01E158FF4FD801C7018F77EE
:100910009070A070B07080349105A105B10539F4D4
:10092000E7FE0DC080E490E0A0E0B0E004C08FE3FB
:1009300090E0A0E0B0E0E80EF91E0A1F1B1F17FFB1
:1009400005C016950795F794E794319687E01695BC
:100950000795F794E7948A95D1F705C0EE24FF2414
:100960008701EFEFF0E06E2F679566276795902F70
:100970009F77D794DD24D7948E2F8695492F462BC9
:10098000582F5D29B701CA011F910F91FF90EF9079
:10099000DF900895FC01DB01408151812281622FAB
:1009A0006F7770E0221F2227221F9381892F880FE3
:1009B000822B282F30E0991F9927991F11969C931D
:1009C000119721153105A9F54115510561057105ED
:1009D00011F482E037C082E89FEF13969C938E93C8
:1009E00012979A01AB0167E0220F331F441F551F76
:1009F0006A95D1F783E08C930DC0220F331F441FFB
:100A0000551F12968D919C911397019713969C9365
:100A10008E931297203080E0380780E0480780E40A
:100A2000580758F314962D933D934D935C93179765
:100A300008952F3F310579F4411551056105710580
:100A400019F484E08C93089564FF03C081E08C93D3
:100A500012C01C9210C02F57304013963C932E9317
:100A6000129783E08C9387E0440F551F661F771F12
:100A70008A95D1F7706414964D935D936D937C9332
:100A8000179708951F93DC01FB019C91923008F4A5
:100A900047C08081823008F443C0943051F41196ED
:100AA0001C91843099F58181682F70E0611B710978
:100AB0003FC0843021F0923031F48230B9F181812D
:100AC000882389F12DC011961C9111978230F1F085
:100AD00081811817D9F412962D913C911397828138
:100AE00093818217930794F028173907BCF0149666
:100AF0008D919D910D90BC91A02D248135814681D1
:100B00005781281739074A075B0718F4112341F06A
:100B10000AC082179307A407B50740F4112319F000
:100B200061E070E005C06FEF7FEF02C060E070E051
:100B3000CB011F910895DF93CF930F92CDB7DEB70E
:100B40008983A7E2B0E0E7E2F0E08081807E8C93C9
:100B5000A7E2B0E0E7E2F0E090818981892B8C93F5
:100B60000E94DC0501C00000E6E2F0E08081829591
:100B70008F70882F90E0817090700097A1F3A6E2AB
:100B8000B0E0E6E2F0E0808180618C93E4E2F0E0A6
:100B9000808191810F90CF91DF910895DF93CF9362
:100BA000CDB7DEB7A6E2B0E0E6E2F0E08081806893
:100BB0008C93CF91DF910895DF93CF93CDB7DEB7BC
:100BC000A6E2B0E0E6E2F0E0808180648C93CF9111
:100BD000DF910895DF93CF93CDB7DEB7A7E2B0E002
:100BE000E7E2F0E080818F778C93A7E2B0E0E7E264
:100BF000F0E080818F7B8C93A7E2B0E0E7E2F0E049
:100C000080818F7D8C93A6E2B0E0E6E2F0E0808107
:100C1000887F8C93A6E2B0E0E6E2F0E08081876016
:100C20008C930E94CE05CF91DF910895DF93CF93EF
:100C300000D000D000D0CDB7DEB78A836B834C8361
:100C400019828A81282F30E03E832D838D819E81F9
:100C50008130910509F449C02D813E812230310552
:100C60002CF48D819E81009771F0D5C02D813E813D
:100C70002230310509F46BC08D819E81833091054E
:100C800009F497C0C8C08C818823A9F4AAE3B0E016
:100C9000EAE3F0E08081482F8B81282F30E081E06B
:100CA00090E0022E02C0880F991F0A94E2F7809507
:100CB00084238C93B2C08C818130A1F4AAE3B0E08C
:100CC000EAE3F0E08081482F8B81282F30E081E03B
:100CD00090E0022E02C0880F991F0A94E2F7842B3D
:100CE0008C939BC081E0898398C08C818823A9F470
:100CF000A7E3B0E0E7E3F0E08081482F8B81282F65
:100D000030E081E090E0022E02C0880F991F0A9423
:100D1000E2F7809584238C9380C08C818130A1F48C
:100D2000A7E3B0E0E7E3F0E08081482F8B81282F34
:100D300030E081E090E0022E02C0880F991F0A94F3
:100D4000E2F7842B8C9369C081E0898366C08C8133
:100D50008823A9F4A4E3B0E0E4E3F0E08081482F25
:100D60008B81282F30E081E090E0022E02C0880FB6
:100D7000991F0A94E2F7809584238C934EC08C814E
:100D80008130A1F4A4E3B0E0E4E3F0E08081482FF7
:100D90008B81282F30E081E090E0022E02C0880F86
:100DA000991F0A94E2F7842B8C9337C081E08983E2
:100DB00034C08C818823A9F4A1E3B0E0E1E3F0E042
:100DC0008081482F8B81282F30E081E090E0022E37
:100DD00002C0880F991F0A94E2F7809584238C93B0
:100DE0001CC08C818130A1F4A1E3B0E0E1E3F0E02C
:100DF0008081482F8B81282F30E081E090E0022E07
:100E000002C0880F991F0A94E2F7842B8C9305C0C7
:100E100081E0898302C081E08983898126960FB6AB
:100E2000F894DEBF0FBECDBFCF91DF910895DF9361
:100E3000CF9300D000D000D0CDB7DEB78A836B83CC
:100E40004C8319828A81282F30E03E832D838D8147
:100E50009E818130910509F449C02D813E81223067
:100E600031052CF48D819E81009771F0D5C02D81C4
:100E70003E812230310509F46BC08D819E81833023
:100E8000910509F497C0C8C08C818823A9F4ABE30D
:100E9000B0E0EBE3F0E08081482F8B81282F30E039
:100EA00081E090E0022E02C0880F991F0A94E2F7B9
:100EB000809584238C93B2C08C818130A1F4ABE304
:100EC000B0E0EBE3F0E08081482F8B81282F30E009
:100ED00081E090E0022E02C0880F991F0A94E2F789
:100EE000842B8C939BC081E0898398C08C8188235C
:100EF000A9F4A8E3B0E0E8E3F0E08081482F8B811B
:100F0000282F30E081E090E0022E02C0880F991F68
:100F10000A94E2F7809584238C9380C08C81813081
:100F2000A1F4A8E3B0E0E8E3F0E08081482F8B81F2
:100F3000282F30E081E090E0022E02C0880F991F38
:100F40000A94E2F7842B8C9369C081E0898366C0A0
:100F50008C818823A9F4A5E3B0E0E5E3F0E080818B
:100F6000482F8B81282F30E081E090E0022E02C0D4
:100F7000880F991F0A94E2F7809584238C934EC0C2
:100F80008C818130A1F4A5E3B0E0E5E3F0E080815D
:100F9000482F8B81282F30E081E090E0022E02C0A4
:100FA000880F991F0A94E2F7842B8C9337C081E055
:100FB000898334C08C818823A9F4A2E3B0E0E2E302
:100FC000F0E08081482F8B81282F30E081E090E095
:100FD000022E02C0880F991F0A94E2F7809584239D
:100FE0008C931CC08C818130A1F4A2E3B0E0E2E3D9
:100FF000F0E08081482F8B81282F30E081E090E065
:10100000022E02C0880F991F0A94E2F7842B8C935A
:1010100005C081E0898302C081E0898389812696A9
:101020000FB6F894DEBF0FBECDBFCF91DF9108950C
:10103000DF93CF93CDB7DEB727970FB6F894DEBF17
:101040000FBECDBF8A836B835D834C8319828A81F7
:10105000282F30E03F832E834E815F814130510540
:1010600059F18E819F818230910534F42E813F8128
:101070002115310569F05CC04E815F814230510518
:1010800079F18E819F818330910509F43DC050C074
:10109000E9E3F0E08081282F30E08B81882F90E019
:1010A000A90102C0559547958A95E2F7CA0181705A
:1010B000EC81FD8180833EC0E6E3F0E08081282F53
:1010C00030E08B81882F90E0A90102C055954795AB
:1010D0008A95E2F7CA018170EC81FD8180832AC084
:1010E000E3E3F0E08081282F30E08B81882F90E0CF
:1010F000A90102C0559547958A95E2F7CA0181700A
:10110000EC81FD81808316C0E0E3F0E08081282F30
:1011100030E08B81882F90E0A90102C0559547955A
:101120008A95E2F7CA018170EC81FD81808302C05B
:1011300081E08983898127960FB6F894DEBF0FBEC0
:10114000CDBFCF91DF910895DF93CF9300D000D032
:101150000F92CDB7DEB78A836B8319828A81282FDD
:1011600030E03D832C838C819D8181309105D1F0CD
:101170002C813D81223031052CF48C819D8100979A
:1011800061F01FC02C813D812230310581F08C81BE
:101190009D818330910581F014C0EAE3F0E08B81FA
:1011A000808311C0E7E3F0E08B8180830CC0E4E32F
:1011B000F0E08B81808307C0E1E3F0E08B818083E6
:1011C00002C081E0898389810F900F900F900F906A
:1011D0000F90CF91DF910895DF93CF9300D000D08F
:1011E0000F92CDB7DEB78A836B8319828A81282F4D
:1011F00030E03D832C838C819D8181309105D1F03D
:101200002C813D81223031052CF48C819D81009709
:1012100061F01FC02C813D812230310581F08C812D
:101220009D818330910581F014C0EBE3F0E08B8168
:10123000808311C0E8E3F0E08B8180830CC0E5E39C
:10124000F0E08B81808307C0E2E3F0E08B81808354
:1012500002C081E0898389810F900F900F900F90D9
:101260000F90CF91DF910895DF93CF9300D000D0FE
:1012700000D0CDB7DEB78A837C836B8319828A81E5
:10128000282F30E03E832D838D819E818130910512
:10129000E1F02D813E81223031052CF48D819E813B
:1012A000009761F027C02D813E8122303105A1F0E9
:1012B0008D819E8183309105B1F01CC0EBE3F0E09D
:1012C0008081EB81FC81808317C0E8E3F0E08081BE
:1012D000EB81FC81808310C0E5E3F0E08081EB814D
:1012E000FC81808309C0E2E3F0E08081EB81FC8136
:1012F000808302C081E08983898126960FB6F894A5
:10130000DEBF0FBECDBFCF91DF910895DF93CF93A6
:1013100000D00F92CDB7DEB780E88B8383E390E0F7
:101320009A838983E9E2F0E089818083E0E4F0E058
:1013300089819A81892F99278083AAE2B0E0EAE225
:10134000F0E0808180618C93AAE2B0E0EAE2F0E014
:10135000808188608C93AAE2B0E0EAE2F0E08081CC
:101360008B7F8C938B8184608B838B8182608B835A
:101370008B818F7B8B838B818F7D8B838B818F7E0A
:101380008B838B8188608B83E0E4F0E08B818083AA
:101390000F900F900F90CF91DF910895DF93CF932F
:1013A0000F92CDB7DEB78983EBE2F0E080818295C2
:1013B00086958770882F90E0817090700097A1F3D8
:1013C000ECE2F0E0898180830F90CF91DF91089566
:1013D000DF93CF9300D00F92CDB7DEB79B838A8384
:1013E00081E089838A819B812FEF8F3F920761F093
:1013F000EBE2F0E080818823DCF7ECE2F0E0808132
:10140000EA81FB818083198289810F900F900F9070
:10141000CF91DF910895DF93CF93CDB7DEB72F97AC
:101420000FB6F894DEBF0FBECDBF8F8782E060E0BD
:1014300041E00E94170782E061E040E00E94170748
:1014400083E06F850E94EC0882E062E041E00E9448
:10145000170780E090E0A0E0B0E48B879C87AD8721
:10146000BE876B857C858D859E8520E030E04AEFC8
:1014700054E40E941702DC01CB018F839887A9876F
:10148000BA876F81788589859A8520E030E040E8C9
:101490005FE30E94710388232CF481E090E09E8337
:1014A0008D833FC06F81788589859A8520E03FEFE5
:1014B0004FE757E40E94110318164CF56B857C85A5
:1014C0008D859E8520E030E040E251E40E941702C5
:1014D000DC01CB01BC01CD010E944100DC01CB014C
:1014E0009E838D830FC088EC90E09C838B838B81DF
:1014F0009C810197F1F79C838B838D819E8101975D
:101500009E838D838D819E81009769F714C06F81C2
:10151000788589859A850E944100DC01CB019E83F4
:101520008D838D819E819A83898389819A81019798
:10153000F1F79A83898382E062E040E00E94170716
:101540002F960FB6F894DEBF0FBECDBFCF91DF91BF
:101550000895DF93CF93CDB7DEB72F970FB6F894EA
:10156000DEBF0FBECDBF8F8782E060E040E00E940B
:10157000170782E061E040E00E94170783E06F8573
:101580000E94EC0882E062E041E00E94170780E0E0
:1015900090E0A0E0B0E48B879C87AD87BE876B8529
:1015A0007C858D859E8520E030E04AEF54E40E94E2
:1015B0001702DC01CB018F839887A987BA876F81D7
:1015C000788589859A8520E030E040E85FE30E94D5
:1015D000710388232CF481E090E09E838D833FC0CB
:1015E0006F81788589859A8520E03FEF4FE757E442
:1015F0000E94110318164CF56B857C858D859E85A0
:1016000020E030E040E251E40E941702DC01CB010F
:10161000BC01CD010E944100DC01CB019E838D8382
:101620000FC088EC90E09C838B838B819C81019719
:10163000F1F79C838B838D819E8101979E838D839F
:101640008D819E81009769F714C06F8178858985A7
:101650009A850E944100DC01CB019E838D838D81A0
:101660009E819A83898389819A810197F1F79A8370
:10167000898382E062E040E00E9417072F960FB650
:10168000F894DEBF0FBECDBFCF91DF910895DF93F9
:10169000CF93CDB7DEB7E8970FB6F894DEBF0FBE95
:1016A000CDBF82E060E041E00E94160682E061E08A
:1016B00041E00E94160682E062E041E00E941606C8
:1016C00083E06FEF0E94A40880E090E0A0E2B2E423
:1016D0008DAB9EABAFABB8AF6DA97EA98FA998AD0E
:1016E00020E030E04AEF54E40E941702DC01CB0115
:1016F00089AB9AABABABBCAB69A97AA98BA99CA906
:1017000020E030E040E85FE30E94710388232CF47E
:1017100081E090E098AB8FA73FC069A97AA98BA917
:101720009CA920E03FEF4FE757E40E9411031816F1
:101730004CF56DA97EA98FA998AD20E030E040E27C
:1017400051E40E941702DC01CB01BC01CD010E94D3
:101750004100DC01CB0198AB8FA70FC088EC90E073
:101760009EA78DA78DA59EA50197F1F79EA78DA792
:101770008FA598A9019798AB8FA78FA598A90097D7
:1017800069F714C069A97AA98BA99CA90E94410094
:10179000DC01CB0198AB8FA78FA598A99CA78BA73D
:1017A0008BA59CA50197F1F79CA78BA788E30E94C6
:1017B000A90A80E090E0A0E0B0E48FA398A7A9A7D1
:1017C000BAA76FA178A589A59AA520E030E04AEFD5
:1017D00054E40E941702DC01CB018BA39CA3ADA3B0
:1017E000BEA36BA17CA18DA19EA120E030E040E8CA
:1017F0005FE30E94710388232CF481E090E09AA3B8
:1018000089A33FC06BA17CA18DA19EA120E03FEFE9
:101810004FE757E40E94110318164CF56FA178A505
:1018200089A59AA520E030E040E251E40E94170229
:10183000DC01CB01BC01CD010E944100DC01CB01E8
:101840009AA389A30FC088EC90E098A38F8F8F8D07
:1018500098A10197F1F798A38F8F89A19AA1019779
:101860009AA389A389A19AA1009769F714C06BA1D3
:101870007CA18DA19EA10E944100DC01CB019AA315
:1018800089A389A19AA19E8F8D8F8D8D9E8D0197A1
:10189000F1F79E8F8D8F8CE00E94A90A80E090E086
:1018A000A0E0B0E4898F9A8FAB8FBC8F698D7A8D61
:1018B0008B8D9C8D20E030E04AEF54E40E941702AB
:1018C000DC01CB018D8B9E8BAF8BB88F6D897E89B0
:1018D0008F89988D20E030E040E85FE30E9471033B
:1018E00088232CF481E090E09C8B8B8B3FC06D892A
:1018F0007E898F89988D20E03FEF4FE757E40E9463
:10190000110318164CF5698D7A8D8B8D9C8D20E016
:1019100030E040E251E40E941702DC01CB01BC013F
:10192000CD010E944100DC01CB019C8B8B8B0FC051
:1019300088EC90E09A8B898B89899A890197F1F7D5
:101940009A8B898B8B899C8901979C8B8B8B8B893C
:101950009C89009769F714C06D897E898F89988D5D
:101960000E944100DC01CB019C8B8B8B8B899C8975
:10197000988B8F878F8598890197F1F7988B8F8740
:1019800081E00E94A90A80E090E0A0E0B0E48B87AB
:101990009C87AD87BE876B857C858D859E8520E085
:1019A00030E04AEF54E40E941702DC01CB018F8340
:1019B0009887A987BA876F81788589859A8520E07D
:1019C00030E040E85FE30E94710388232CF481E05B
:1019D00090E09E838D833FC06F81788589859A854D
:1019E00020E03FEF4FE757E40E94110318164CF533
:1019F0006B857C858D859E8520E030E040E251E45A
:101A00000E941702DC01CB01BC01CD010E94410004
:101A1000DC01CB019E838D830FC088EC90E09C831A
:101A20008B838B819C810197F1F79C838B838D81C4
:101A30009E8101979E838D838D819E81009769F79A
:101A400014C06F81788589859A850E944100DC01E8
:101A5000CB019E838D838D819E819A838983898129
:101A60009A810197F1F79A83898386E00E94A90AF7
:101A7000E8960FB6F894DEBF0FBECDBFCF91DF91D1
:101A80000895DF93CF9300D00F92CDB7DEB79B833D
:101A90008A83198214C08981803119F480EC0E94F4
:101AA000A90A8981282F30E08A819B81FC01E20FFD
:101AB000F31F80810E940B0A89818F5F898389814E
:101AC000282F30E08A819B81FC01E20FF31F808187
:101AD000882309F70F900F900F90CF91DF91089511
:101AE000DF93CF93CDB7DEB762970FB6F894DEBF22
:101AF0000FBECDBF9A8B898B1F86188A0EC088892E
:101B0000282F30E089899A89FC01E20FF31F808138
:101B10000E940B0A88898F5F888B8889282F30E084
:101B200089899A89FC01E20FF31F8081882339F7A4
:101B30008F859889692F0E949110892F803119F41F
:101B400080E80E94A90A88E10E94A90A80E090E04A
:101B5000AAEFB3E48B879C87AD87BE876B857C85B6
:101B60008D859E8520E030E04AEF54E40E94170204
:101B7000DC01CB018F839887A987BA876F8178852D
:101B800089859A8520E030E040E85FE30E94710398
:101B900088232CF481E090E09E838D833FC06F8189
:101BA000788589859A8520E03FEF4FE757E40E94CA
:101BB000110318164CF56B857C858D859E8520E07C
:101BC00030E040E251E40E941702DC01CB01BC018D
:101BD000CD010E944100DC01CB019E838D830FC0AB
:101BE00088EC90E09C838B838B819C810197F1F73B
:101BF0009C838B838D819E8101979E838D838D81B4
:101C00009E81009769F714C06F81788589859A85D0
:101C10000E944100DC01CB019E838D838D819E81DA
:101C20009A83898389819A810197F1F79A838983BD
:101C30008F858F5F8F877CCFDF93CF93CDB7DEB754
:101C400062970FB6F894DEBF0FBECDBF9A8B898B1B
:101C50001F86188A0EC08889282F30E089899A89C2
:101C6000FC01E20FF31F80810E940B0A88898F5FBD
:101C7000888B8889282F30E089899A89FC01E20FB6
:101C8000F31F8081882339F78F859889692F0E94F7
:101C90009110892F803119F480E80E94A90A8CE103
:101CA0000E94A90A80E090E0AAEFB3E48B879C87AA
:101CB000AD87BE876B857C858D859E8520E030E075
:101CC0004AEF54E40E941702DC01CB018F8398870E
:101CD000A987BA876F81788589859A8520E030E069
:101CE00040E85FE30E94710388232CF481E090E0D8
:101CF0009E838D833FC06F81788589859A8520E09A
:101D00003FEF4FE757E40E94110318164CF56B851F
:101D10007C858D859E8520E030E040E251E40E9484
:101D20001702DC01CB01BC01CD010E944100DC01A6
:101D3000CB019E838D830FC088EC90E09C838B83C6
:101D40008B819C810197F1F79C838B838D819E8190
:101D500001979E838D838D819E81009769F714C0C2
:101D60006F81788589859A850E944100DC01CB01CD
:101D70009E838D838D819E819A83898389819A81B7
:101D80000197F1F79A8389838F858F5F8F877CCF47
:101D9000DF93CF93CDB7DEB781E00E94A90ACF9140
:101DA000DF910895DF93CF9300D0CDB7DEB789835D
:101DB0006A838981813041F48A81883228F48A815A
:101DC00080580E94A90A0FC08981823061F48A81FB
:101DD000882F90E0805C9F4F8736910524F48A819C
:101DE00080540E94A90A0F900F90CF91DF9108951F
:101DF000DF93CF9300D0CDB7DEB789836A83898123
:101E00006A810E94D20E8FE00E94A90A0F900F9063
:101E1000CF91DF910895DF93CF93CDB7DEB72797AA
:101E20000FB6F894DEBF0FBECDBF9F838E838E8129
:101E30009F819D838C8381E090E09B838A831982BC
:101E40008C819D810097F9F480E30E940B0A1BC0EE
:101E50008C819D812AE030E0B9010E949D10CB0168
:101E60009D838C838A819B819C01220F331FC90132
:101E7000880F991F880F991F820F931F9B838A8356
:101E800089818F5F89838C819D81009709F78A8181
:101E90009B812AE030E0B9010E949D10CB019B8319
:101EA0008A832FC08E819F812A813B81B9010E9444
:101EB0009D10CB01882F90E09D838C838C81805D69
:101EC0000E940B0A2C813D818A819B81A901489F38
:101ED0009001499F300D589F300D11248E819F81B4
:101EE000821B930B9F838E838A819B812AE030E043
:101EF000B9010E949D10CB019B838A838981815007
:101F000089838981882371F627960FB6F894DEBFFE
:101F10000FBECDBFCF91DF910895DF93CF93CDB7A3
:101F2000DEB76C970FB6F894DEBF0FBECDBFAAE345
:101F3000B0E0EAE3F0E0808181608C93ABE3B0E055
:101F4000EBE3F0E0808181608C9380E090E0AAE791
:101F5000B4E4898F9A8FAB8FBC8F698D7A8D8B8D0E
:101F60009C8D20E030E04AEF54E40E941702DC012F
:101F7000CB018D8B9E8BAF8BB88F6D897E898F89BE
:101F8000988D20E030E040E85FE30E9471038823F1
:101F90002CF481E090E09C8B8B8B3FC06D897E8917
:101FA0008F89988D20E03FEF4FE757E40E9411039F
:101FB00018164CF5698D7A8D8B8D9C8D20E030E064
:101FC00040E251E40E941702DC01CB01BC01CD01CB
:101FD0000E944100DC01CB019C8B8B8B0FC088ECF5
:101FE00090E09A8B898B89899A890197F1F79A8B6E
:101FF000898B8B899C8901979C8B8B8B8B899C8986
:10200000009769F714C06D897E898F89988D0E9429
:102010004100DC01CB019C8B8B8B8B899C89988B3D
:102020008F878F8598890197F1F7988B8F87ABE31E
:10203000B0E0EBE3F0E080818E7F8C9380E090E075
:10204000AAE7B4E48B879C87AD87BE876B857C85C8
:102050008D859E8520E030E04AEF54E40E9417020F
:10206000DC01CB018F839887A987BA876F81788538
:1020700089859A8520E030E040E85FE30E947103A3
:1020800088232CF481E090E09E838D833FC06F8194
:10209000788589859A8520E03FEF4FE757E40E94D5
:1020A000110318164CF56B857C858D859E8520E087
:1020B00030E040E251E40E941702DC01CB01BC0198
:1020C000CD010E944100DC01CB019E838D830FC0B6
:1020D00088EC90E09C838B838B819C810197F1F746
:1020E0009C838B838D819E8101979E838D838D81BF
:1020F0009E81009769F722CF6F81788589859A85BF
:102100000E944100DC01CB019E838D838D819E81E5
:102110009A83898389819A810197F1F79A838983C8
:102120000DCF991B79E004C0991F961708F0961BF4
:10213000881F7A95C9F780950895AA1BBB1B51E1AA
:1021400007C0AA1FBB1FA617B70710F0A61BB70B27
:10215000881F991F5A95A9F780959095BC01CD01CC
:1021600008952F923F924F925F926F927F928F923B
:102170009F92AF92BF92CF92DF92EF92FF920F9316
:102180001F93CF93DF93CDB7DEB7CA1BDB0B0FB620
:10219000F894DEBF0FBECDBF09942A8839884888DD
:1021A0005F846E847D848C849B84AA84B984C88473
:1021B000DF80EE80FD800C811B81AA81B981CE0F6A
:1021C000D11D0FB6F894DEBF0FBECDBFED0108954F
:0421D000F894FFCFB1
:0821D400000000000000000003
:00000001FF
